{"abi":[{"type":"constructor","inputs":[{"name":"tokens","type":"tuple[]","internalType":"struct Lootbox.Token[]","components":[{"name":"assetContract","type":"address","internalType":"address"},{"name":"tokenType","type":"uint8","internalType":"enum Lootbox.TokenType"},{"name":"tokenId","type":"uint256","internalType":"uint256"},{"name":"totalAmount","type":"uint256","internalType":"uint256"}]},{"name":"perUnitAmounts","type":"uint256[]","internalType":"uint256[]"},{"name":"feePerOpen","type":"uint128","internalType":"uint128"},{"name":"amountDistributedPerOpen","type":"uint64","internalType":"uint64"},{"name":"openStartTimestamp","type":"uint64","internalType":"uint64"},{"name":"whitelistRoot","type":"bytes32","internalType":"bytes32"},{"name":"vrfKeyHash","type":"bytes32","internalType":"bytes32"},{"name":"vrfCoordinatorV2","type":"address","internalType":"address"},{"name":"vrfSubscriptionId","type":"uint256","internalType":"uint256"}],"stateMutability":"nonpayable"},{"type":"function","name":"acceptOwnership","inputs":[],"outputs":[],"stateMutability":"nonpayable"},{"type":"function","name":"canClaimRewards","inputs":[{"name":"opener","type":"address","internalType":"address"}],"outputs":[{"name":"","type":"bool","internalType":"bool"}],"stateMutability":"view"},{"type":"function","name":"claimRewards","inputs":[{"name":"opener","type":"address","internalType":"address"}],"outputs":[],"stateMutability":"nonpayable"},{"type":"function","name":"getLootboxTokens","inputs":[],"outputs":[{"name":"tokens","type":"tuple[]","internalType":"struct Lootbox.Token[]","components":[{"name":"assetContract","type":"address","internalType":"address"},{"name":"tokenType","type":"uint8","internalType":"enum Lootbox.TokenType"},{"name":"tokenId","type":"uint256","internalType":"uint256"},{"name":"totalAmount","type":"uint256","internalType":"uint256"}]},{"name":"perUnitAmounts","type":"uint256[]","internalType":"uint256[]"}],"stateMutability":"view"},{"type":"function","name":"getRequestIdOf","inputs":[{"name":"opener","type":"address","internalType":"address"}],"outputs":[{"name":"","type":"uint256","internalType":"uint256"}],"stateMutability":"view"},{"type":"function","name":"onERC1155BatchReceived","inputs":[{"name":"","type":"address","internalType":"address"},{"name":"","type":"address","internalType":"address"},{"name":"","type":"uint256[]","internalType":"uint256[]"},{"name":"","type":"uint256[]","internalType":"uint256[]"},{"name":"","type":"bytes","internalType":"bytes"}],"outputs":[{"name":"","type":"bytes4","internalType":"bytes4"}],"stateMutability":"nonpayable"},{"type":"function","name":"onERC1155Received","inputs":[{"name":"","type":"address","internalType":"address"},{"name":"","type":"address","internalType":"address"},{"name":"","type":"uint256","internalType":"uint256"},{"name":"","type":"uint256","internalType":"uint256"},{"name":"","type":"bytes","internalType":"bytes"}],"outputs":[{"name":"","type":"bytes4","internalType":"bytes4"}],"stateMutability":"nonpayable"},{"type":"function","name":"onERC721Received","inputs":[{"name":"","type":"address","internalType":"address"},{"name":"","type":"address","internalType":"address"},{"name":"","type":"uint256","internalType":"uint256"},{"name":"","type":"bytes","internalType":"bytes"}],"outputs":[{"name":"","type":"bytes4","internalType":"bytes4"}],"stateMutability":"nonpayable"},{"type":"function","name":"owner","inputs":[],"outputs":[{"name":"","type":"address","internalType":"address"}],"stateMutability":"view"},{"type":"function","name":"privateOpen","inputs":[{"name":"amountToOpen","type":"uint64","internalType":"uint64"},{"name":"merkleProof","type":"bytes32[]","internalType":"bytes32[]"}],"outputs":[],"stateMutability":"payable"},{"type":"function","name":"publicOpen","inputs":[{"name":"amountToOpen","type":"uint64","internalType":"uint64"}],"outputs":[],"stateMutability":"payable"},{"type":"function","name":"rawFulfillRandomWords","inputs":[{"name":"requestId","type":"uint256","internalType":"uint256"},{"name":"randomWords","type":"uint256[]","internalType":"uint256[]"}],"outputs":[],"stateMutability":"nonpayable"},{"type":"function","name":"s_vrfCoordinator","inputs":[],"outputs":[{"name":"","type":"address","internalType":"contract IVRFCoordinatorV2Plus"}],"stateMutability":"view"},{"type":"function","name":"setCoordinator","inputs":[{"name":"_vrfCoordinator","type":"address","internalType":"address"}],"outputs":[],"stateMutability":"nonpayable"},{"type":"function","name":"setPrivateOpen","inputs":[{"name":"privateOpenEnabled","type":"bool","internalType":"bool"}],"outputs":[],"stateMutability":"nonpayable"},{"type":"function","name":"setWhitelistRoot","inputs":[{"name":"whiteListRoot","type":"bytes32","internalType":"bytes32"}],"outputs":[],"stateMutability":"nonpayable"},{"type":"function","name":"supportsInterface","inputs":[{"name":"interfaceId","type":"bytes4","internalType":"bytes4"}],"outputs":[{"name":"","type":"bool","internalType":"bool"}],"stateMutability":"view"},{"type":"function","name":"transferOwnership","inputs":[{"name":"to","type":"address","internalType":"address"}],"outputs":[],"stateMutability":"nonpayable"},{"type":"function","name":"withdraw","inputs":[],"outputs":[],"stateMutability":"nonpayable"},{"type":"event","name":"CoordinatorSet","inputs":[{"name":"vrfCoordinator","type":"address","indexed":false,"internalType":"address"}],"anonymous":false},{"type":"event","name":"OpenRequestFulfilled","inputs":[{"name":"requestId","type":"uint256","indexed":false,"internalType":"uint256"},{"name":"randomness","type":"uint256","indexed":false,"internalType":"uint256"}],"anonymous":false},{"type":"event","name":"OpenRequested","inputs":[{"name":"opener","type":"address","indexed":false,"internalType":"address"},{"name":"amountToOpen","type":"uint256","indexed":false,"internalType":"uint256"},{"name":"requestId","type":"uint256","indexed":false,"internalType":"uint256"}],"anonymous":false},{"type":"event","name":"OwnershipTransferRequested","inputs":[{"name":"from","type":"address","indexed":true,"internalType":"address"},{"name":"to","type":"address","indexed":true,"internalType":"address"}],"anonymous":false},{"type":"event","name":"OwnershipTransferred","inputs":[{"name":"from","type":"address","indexed":true,"internalType":"address"},{"name":"to","type":"address","indexed":true,"internalType":"address"}],"anonymous":false},{"type":"event","name":"RewardsClaimed","inputs":[{"name":"opener","type":"address","indexed":false,"internalType":"address"},{"name":"amountToOpen","type":"uint256","indexed":false,"internalType":"uint256"},{"name":"rewardUnits","type":"tuple[]","indexed":false,"internalType":"struct Lootbox.Token[]","components":[{"name":"assetContract","type":"address","internalType":"address"},{"name":"tokenType","type":"uint8","internalType":"enum Lootbox.TokenType"},{"name":"tokenId","type":"uint256","internalType":"uint256"},{"name":"totalAmount","type":"uint256","internalType":"uint256"}]}],"anonymous":false},{"type":"error","name":"FailedToWithdrawFunds","inputs":[]},{"type":"error","name":"InsufficientValue","inputs":[]},{"type":"error","name":"InvalidLength","inputs":[]},{"type":"error","name":"InvalidLootboxSupply","inputs":[{"name":"sumOfRewardUnits","type":"uint256","internalType":"uint256"},{"name":"amountDistributedPerOpen","type":"uint256","internalType":"uint256"}]},{"type":"error","name":"InvalidTokenAmount","inputs":[]},{"type":"error","name":"NoPendingRequest","inputs":[]},{"type":"error","name":"NoTokens","inputs":[]},{"type":"error","name":"NotAllowed","inputs":[]},{"type":"error","name":"NotEligible","inputs":[]},{"type":"error","name":"OnlyCoordinatorCanFulfill","inputs":[{"name":"have","type":"address","internalType":"address"},{"name":"want","type":"address","internalType":"address"}]},{"type":"error","name":"OnlyOwnerOrCoordinator","inputs":[{"name":"have","type":"address","internalType":"address"},{"name":"owner","type":"address","internalType":"address"},{"name":"coordinator","type":"address","internalType":"address"}]},{"type":"error","name":"OpeningNotStarted","inputs":[]},{"type":"error","name":"PendingOpenRequest","inputs":[]},{"type":"error","name":"RandomnessNotFulfilled","inputs":[]},{"type":"error","name":"SupplyExceeded","inputs":[{"name":"supply","type":"uint256","internalType":"uint256"},{"name":"amountToOpen","type":"uint256","internalType":"uint256"}]},{"type":"error","name":"ZeroAddress","inputs":[]},{"type":"error","name":"ZeroAmount","inputs":[]}],"bytecode":{"object":"0x60e08060405234620004d957620024d28038038091620000208285620008e9565b833981019061012081830312620004d95780516001600160401b038111620004d957810182601f82011215620004d9578051906200005e826200090d565b916200006e6040519384620008e9565b80835260208084019160071b83010191858311620004d957602001905b828210620008505750505060208201516001600160401b038111620004d95782019083601f83011215620004d957815193620000c7856200090d565b92620000d76040519485620008e9565b85845260208401906020829760051b820101928311620004d957602001905b8282106200083f575050506040830151926001600160801b0384168403620004d95762000126606082016200093a565b9062000135608082016200093a565b9160a08201519160c08101516101006200015260e0840162000925565b920151923315620007fa57600080546001600160a01b031990811633179091556001600160a01b03841615620007e857600280549091166001600160a01b0385161790558651956001600160401b03871615620007d65788516001600160401b03881603620007c4576000998a5b89518c1015620002c457620001d68c8b6200094f565b51606081015115620002b257620002008c620001f88f6060850151926200094f565b51906200097a565b6200027a57602081015160038110156200029c57600180911490816200028c575b506200027a576060015162000244906200023c8e8e6200094f565b51906200099b565b810180911162000264579a60018101811162000264576001019a620001c0565b634e487b7160e01b600052601160045260246000fd5b604051632160733960e01b8152600490fd5b9050606082015114153862000221565b634e487b7160e01b600052602160045260246000fd5b604051631f2a200560e01b8152600490fd5b9798978c908b90620002e06001600160401b038716826200097a565b6200079b57620002fb906001600160401b038716906200099b565b600580546001600160c01b031660c09290921b6001600160c01b03191691909117905560005b8a518110156200056e5762000337818c6200094f565b51602081015160038110156200029c576200044757333003620003f057805160609091015160405163a9059cbb60e01b602082015230602480830191909152604480830193909352918152916001600160a01b031690608083018084116001600160401b0390911117620003dc575090620003b99160808201604052620009a6565b60018101809111156200032157634e487b7160e01b600052601160045260246000fd5b634e487b7160e01b60009081526041600452fd5b80516060909101516040516323b872dd60e01b602082015233602482015230604482015260648082019290925290815262000441916001600160a01b03166200043b608483620008e9565b620009a6565b620003b9565b602081015160038110156200029c57600103620004de578051604090910151906001600160a01b0316803b15620004d957604051632142170760e11b815233600482015230602482015260448101929092526000908290606490829084905af18015620004cd57620004bb575b50620003b9565b620004c690620008d5565b8c620004b4565b6040513d6000823e3d90fd5b600080fd5b602081015160038110156200029c57600214620004fc5750620003b9565b60018060a01b038151169060606040820151910151823b15620004d95760c4600092836040519586948593637921219560e11b85523360048601523060248601526044850152606484015260a060848401528160a48401525af18015620004cd5715620004b457620004c690620008d5565b508a8a60005b6001600160401b03831681106200071257505060058054600160801b600160c01b03191660809290921b600160801b600160c01b031691909117905551906001600160401b038211620006fc57680100000000000000008211620006fc5760045482600455808310620006b3575b506004600052602060002060005b8381106200069e575050600580546001600160801b03199081166001600160801b03959095169490941790555050600680549091166001600160401b039093169290921760409190911b6fffffffffffffffff00000000000000001617905560805260a05260c0528062000687575b6040516118e9908162000be9823960805181611514015260a05181505060c0518161153c0152f35b600160ff196008541617600855600755806200065f565b600190602084519401938184015501620005f0565b60046000527f8a35acfbc15ff81a39ae7d344fd709f28e8600b4aa8c65c6b64bfe7fe36bd19b9081019083015b818110620006ef5750620005e2565b60008155600101620006e0565b634e487b7160e01b600052604160045260246000fd5b6200071e81836200094f565b51816000526003908160205260406000209160018060a01b038251169183546020820151928310156200029c5760029360609360ff60a01b9060a01b169160018060a81b0319161717845560408101516001850155015191015560018101809111156200057457634e487b7160e01b600052601160045260246000fd5b6040516332ecbad560e21b815260048101919091526001600160401b0386166024820152604490fd5b60405163251f56a160e21b8152600490fd5b60405163df95788360e01b8152600490fd5b60405163d92e233d60e01b8152600490fd5b60405162461bcd60e51b815260206004820152601860248201527f43616e6e6f7420736574206f776e657220746f207a65726f00000000000000006044820152606490fd5b8151815260209182019101620000f6565b6080908183880312620004d9576040519182016001600160401b03811183821017620008c057604052620008848362000925565b82526020830151906003821015620004d9578260209283608095015260408501516040820152606080860151908201528152019101906200008b565b60246000634e487b7160e01b81526041600452fd5b6001600160401b038111620006fc57604052565b601f909101601f19168101906001600160401b03821190821017620006fc57604052565b6001600160401b038111620006fc5760051b60200190565b51906001600160a01b0382168203620004d957565b51906001600160401b0382168203620004d957565b8051821015620009645760209160051b010190565b634e487b7160e01b600052603260045260246000fd5b811562000985570690565b634e487b7160e01b600052601260045260246000fd5b811562000985570490565b604080516001600160a01b03929092169291906001600160401b0390820181811183821017620006fc576040526020938483527f5361666545524332303a206c6f772d6c6576656c2063616c6c206661696c6564858401526000808587829751910182855af1903d1562000b02573d92831162000aee579062000a4c9392916040519262000a3e88601f19601f8401160185620008e9565b83523d868885013e62000b0e565b80519182159184831562000ac0575b50505090501562000a695750565b6084906040519062461bcd60e51b82526004820152602a60248201527f5361666545524332303a204552433230206f7065726174696f6e20646964206e6044820152691bdd081cdd58d8d9595960b21b6064820152fd5b91938180945001031262000aea5782015190811515820362000ae757508038808462000a5b565b80fd5b5080fd5b634e487b7160e01b85526041600452602485fd5b9062000a4c9392506060915b9192901562000b73575081511562000b24575090565b3b1562000b2e5790565b60405162461bcd60e51b815260206004820152601d60248201527f416464726573733a2063616c6c20746f206e6f6e2d636f6e74726163740000006044820152606490fd5b82519091501562000b875750805190602001fd5b6040519062461bcd60e51b82528160208060048301528251908160248401526000935b82851062000bce575050604492506000838284010152601f80199101168101030190fd5b848101820151868601604401529381019385935062000baa56fe608080604052600436101561001357600080fd5b600090813560e01c90816301ffc9a714610f58575080630f17d22814610e2e578063150b7a0214610dd85780631dead06014610da05780631fe543e314610cdc5780632f282f6014610ca35780633ccfd60b14610c5557806379ba509714610bb15780638da5cb5b14610b8a5780638ea9811714610abd5780639eccacf614610a94578063a9b47a6614610a33578063b13e796b146109c4578063bc197c8114610937578063dcca63fc146108fa578063ef5cfb8c14610227578063f23a6e61146101cd578063f2fde38b146101175763f5aa406d146100f257600080fd5b346101145760203660031901126101145761010b6117c4565b60043560075580f35b80fd5b503461011457602036600319011261011457610131610ff8565b6101396117c4565b6001600160a01b039081169033821461018857600180546001600160a01b031916831790558254167fed8889f560326eb138920d842192f0eb3dd22b4f139c87a2c57538e05bae12788380a380f35b60405162461bcd60e51b815260206004820152601760248201527f43616e6e6f74207472616e7366657220746f2073656c660000000000000000006044820152606490fd5b50346101145760a0366003190112610114576101e7610ff8565b506101f061100e565b506084356001600160401b038111610223576102109036906004016110da565b5060405163f23a6e6160e01b8152602090f35b5080fd5b5034610114576020366003190112610114576001600160a01b03610249610ff8565b1690818152600a602052604081205480156108e8578082526009602052604082206040519161027783611024565b60406001835493818060a01b03851686526001600160401b03602087019560a01c1685520154930192808452156108d65783526009602052826001604082208281550155838352600a6020528260408120556001600160401b03815116915193600554926001600160401b0360065416809460c01c026001600160401b0381169081036108c25760045482868102048614831517156108ae5761031b868402611216565b976103246112f2565b5096885b81860281106106bd57505050505050835b835181101561038257606061034e82866112a6565b510151818652600360205260026040872001556001810180911115610339575b634e487b7160e01b85526011600452602485fd5b509150926001600160401b03845116600554908160c01c036001600160401b03811161036e576001600160c01b0390911660c09190911b6001600160c01b03191617600555825b8151811015610667576103dc81836112a6565b51602081018051906003918281101561065357610535575050606060018060a01b03825116910151610481604051602081019363a9059cbb60e01b855288806024968a888601526044968786015286855261043685611068565b6040519461044386611083565b602086527f5361666545524332303a206c6f772d6c6576656c2063616c6c206661696c65646020870152519082855af161047b61140d565b91611816565b805190811591821561050e575b5050156104b85750505b60018101809111156103c957634e487b7160e01b84526011600452602484fd5b907f5361666545524332303a204552433230206f7065726174696f6e20646964206e608492602a6040519362461bcd60e51b855260206004860152840152820152691bdd081cdd58d8d9595960b21b6064820152fd5b81925090602091810103126105315760200151801515810361053157388061048e565b8680fd5b805182811015610653576001036105b8575050604060018060a01b03825116910151813b156105b4578591606483926040519485938492632142170760e11b84523060048501528a602485015260448401525af180156105a95761059a575b50610498565b6105a390611055565b38610594565b6040513d87823e3d90fd5b8580fd5b519081101561063f576002146105ce5750610498565b805160408201516060909201516001600160a01b0390911691823b15610531579060c48792836040519586948593637921219560e11b85523060048601528b60248601526044850152606484015260a060848401528160a48401525af180156105a95715610594576105a390611055565b634e487b7160e01b86526021600452602486fd5b634e487b7160e01b88526021600452602488fd5b507fe31022597d3eeaf3d1844dc09020fa7a5789300a696d73b25782ce83bf126c98916106b76001600160401b038651169260405193849384526020840152606060408401526060830190611121565b0390a180f35b6040516020810190848252826040820152604081526106db81611024565b519020851561089a578a90869006815b8b878410610719575b505050506001810180911115610328575b634e487b7160e01b8a52601160045260248afd5b610728846060929a969a6112a6565b5101516107348461178d565b90549060031b1c9081156108865704908261074f8383611283565b1115610853575050506107618161178d565b90549060031b1c6060610774838d6112a6565b5101908151808281031161083f570390528b6107a5876001600160a01b0361079c858f6112a6565b515116926112a6565b515260206107b3828c6112a6565b510151600381101561082b57610812876108058f9460408f826107ee916107e960609960206107e28a8e6112a6565b51016112d0565b6112a6565b51015160406107fd85896112a6565b51015261178d565b90549060031b1c936112a6565b510152600019810190811161070557933880808b6106f4565b634e487b7160e01b8c52602160045260248cfd5b634e487b7160e01b8e52601160045260248efd5b9061086091989498611283565b916001810180911161087257916106eb565b634e487b7160e01b8d52601160045260248dfd5b634e487b7160e01b8f52601260045260248ffd5b634e487b7160e01b8b52601260045260248bfd5b634e487b7160e01b87526011600452602487fd5b634e487b7160e01b86526011600452602486fd5b604051630e65220760e21b8152600490fd5b60405163198580dd60e31b8152600490fd5b5060203660031901126101145761090f610fad565b60ff60085416610925576109229061143d565b80f35b604051631eb49d6d60e11b8152600490fd5b50346101145760a036600319011261011457610951610ff8565b5061095a61100e565b506001600160401b036044358181116109c05761097b9036906004016111b8565b506064358181116109c0576109949036906004016111b8565b50608435908111610223576109ad9036906004016110da565b5060405163bc197c8160e01b8152602090f35b8280fd5b50346101145780600319360112610114576109f7906109e16112f2565b9091604051938493604085526040850190611121565b6020848203818601528080855193848152019401925b828110610a1c57505050500390f35b835185528695509381019392810192600101610a0d565b5034610114576020366003190112610114576020906001600160a01b03610a58610ff8565b168152600a82526040812054908115159182610a7b575b50506040519015158152f35b8152600983526040902060010154151590503880610a6f565b50346101145780600319360112610114576002546040516001600160a01b039091168152602090f35b503461011457602036600319011261011457610ad7610ff8565b81546001600160a01b03919082163381141580610b7c575b610b545750168015610b42576020817fd1a6a14209a385a964d036e404cb5cfb71f4000cdb03c9366292430787261be6926bffffffffffffffffffffffff60a01b6002541617600255604051908152a180f35b60405163d92e233d60e01b8152600490fd5b60649083600254166040519163061db9c160e01b835233600484015260248301526044820152fd5b508260025416331415610aef565b5034610114578060031936011261011457546040516001600160a01b039091168152602090f35b50346101145780600319360112610114576001546001600160a01b038082163303610c175782546001600160a01b03198082163390811786559316600155167f8be0079c531659141344cd1fd0a4f28419497f9722a3daafe3b4186f6b6457e08380a380f35b60405162461bcd60e51b815260206004820152601660248201527526bab9ba10313290383937b837b9b2b21037bbb732b960511b6044820152606490fd5b5034610114578060031936011261011457610c6e6117c4565b8080808060018060a01b0381541647905af1610c8861140d565b5015610c915780f35b60405163c4fd53a560e01b8152600490fd5b5034610114576020366003190112610114576020906040906001600160a01b03610ccb610ff8565b168152600a83522054604051908152f35b5034610114576040366003190112610114576004356024356001600160401b0381116109c057610d10903690600401610fc8565b6002546001600160a01b031633819003610d82575015610d6e577fa0c724f1a3bdcebd75096476a2272c70ecf0c6f820ac73a16b7d6768f48cedef91604091358185526009602052806001848720015582519182526020820152a180f35b634e487b7160e01b83526032600452602483fd5b6044906040519063073e64fd60e21b82523360048301526024820152fd5b50346101145760203660031901126101145760043580151580910361022357610dc76117c4565b60ff80196008541691161760085580f35b503461011457608036600319011261011457610df2610ff8565b50610dfb61100e565b506064356001600160401b03811161022357610e1b9036906004016110da565b50604051630a85bd0160e11b8152602090f35b50604036600319011261011457610e43610fad565b60249182356001600160401b03811161022357610e64903690600401610fc8565b610e70819492946111a1565b93610e7e604051958661109e565b8185526020918286019060051b8201913683116105b4578390915b838310610f485750505050604051818101903360601b825260148152610ebe81611083565b51902093600754949284935b8251851015610f2457610edd85846112a6565b519081811015610f165786528352604085205b936000198114610f035760010193610eca565b634e487b7160e01b865260116004528786fd5b908652835260408520610ef0565b9086869203610f36576109229061143d565b604051637c75aa6f60e11b8152600490fd5b8235815291810191849101610e99565b9050346102235760203660031901126102235760043563ffffffff60e01b81168091036109c05760209250630271189760e51b8114908115610f9c575b5015158152f35b6301ffc9a760e01b14905038610f95565b600435906001600160401b0382168203610fc357565b600080fd5b9181601f84011215610fc3578235916001600160401b038311610fc3576020808501948460051b010111610fc357565b600435906001600160a01b0382168203610fc357565b602435906001600160a01b0382168203610fc357565b606081019081106001600160401b0382111761103f57604052565b634e487b7160e01b600052604160045260246000fd5b6001600160401b03811161103f57604052565b608081019081106001600160401b0382111761103f57604052565b604081019081106001600160401b0382111761103f57604052565b90601f801991011681019081106001600160401b0382111761103f57604052565b6001600160401b03811161103f57601f01601f191660200190565b81601f82011215610fc3578035906110f1826110bf565b926110ff604051948561109e565b82845260208383010111610fc357816000926020809301838601378301015290565b9081518082526020808093019301916000805b83821061114357505050505090565b9091929394855160018060a01b03815116825284810151600381101561118d5785830152604080820151908301526060908101519082015260800194830193929160010190611134565b634e487b7160e01b84526021600452602484fd5b6001600160401b03811161103f5760051b60200190565b81601f82011215610fc3578035916111cf836111a1565b926111dd604051948561109e565b808452602092838086019260051b820101928311610fc3578301905b828210611207575050505090565b813581529083019083016111f9565b90611220826111a1565b60409061122f8251918261109e565b8381528093611240601f19916111a1565b019160005b8381106112525750505050565b602090825161126081611068565b600081528260008183015260008583015260006060830152828601015201611245565b9190820180921161129057565b634e487b7160e01b600052601160045260246000fd5b80518210156112ba5760209160051b010190565b634e487b7160e01b600052603260045260246000fd5b60038210156112dc5752565b634e487b7160e01b600052602160045260246000fd5b6001600160401b0360055460801c169061130b82611216565b9160005b818110611387575050604051808160045480835260208093019060046000527f8a35acfbc15ff81a39ae7d344fd709f28e8600b4aa8c65c6b64bfe7fe36bd19b936000905b82821061136d5750505061136a9250038261109e565b90565b855484526001958601958795509381019390910190611354565b806000526020600381526002604080600020906113c58151946113a986611068565b83546001600160a01b038116875260a01c60ff169086016112d0565b600182015490840152015460608201526113df82866112a6565b526113ea81856112a6565b50600181018091111561130f57634e487b7160e01b600052601160045260246000fd5b3d15611438573d9061141e826110bf565b9161142c604051938461109e565b82523d6000602084013e565b606090565b906006546001600160401b0392604091844291841c161161173c57831690811561172c576005548060c01c83811061170f5750826fffffffffffffffffffffffffffffffff809216029081169081036112905734106116ff57600091338352602092600a8452828120546116ee576002548351966001600160a01b03918216908689018181118a8210176116da57865283895285519863125fa26760e31b888b015251151560248a0152602489526114f489611024565b85519060c08201908111828210176116da57918798999161ffff989388527f0000000000000000000000000000000000000000000000000000000000000000815285848201917f000000000000000000000000000000000000000000000000000000000000000083526115d48a820195600387526060830162030d408152608084016001815260a085019283528d519e8f998a988997634d8e1c2f60e11b89528d60048a01525160248901525160448801525116606486015263ffffffff809251166084860152511660a48401525160c060c484015260e483019061174d565b03925af19485156116d057829561167b575b5091848480936060979560017f1a30dc59b0fe27f59cd16916b8f3e3f37b3f0f1ce762cfaacfc66c5fa42920219a98519161162083611024565b3383528983018781528584019185835287865260098c528686209451168454916001600160401b0360a01b905160a01b169163ffffffff60e01b161717835551910155338152600a87522055815193338552840152820152a1565b909194508581813d83116116c9575b611694818361109e565b810103126116c5575193907f1a30dc59b0fe27f59cd16916b8f3e3f37b3f0f1ce762cfaacfc66c5fa42920216115e6565b8480fd5b503d61168a565b84513d84823e3d90fd5b634e487b7160e01b85526041600452602485fd5b82516326cdef5560e01b8152600490fd5b5163044044a560e21b8152600490fd5b604490848451916339da97c960e21b835260048301526024820152fd5b51631f2a200560e01b8152600490fd5b8151631ed3346f60e01b8152600490fd5b919082519283825260005b848110611779575050826000602080949584010152601f8019910116010190565b602081830181015184830182015201611758565b6004548110156112ba5760046000527f8a35acfbc15ff81a39ae7d344fd709f28e8600b4aa8c65c6b64bfe7fe36bd19b0190600090565b6000546001600160a01b031633036117d857565b60405162461bcd60e51b815260206004820152601660248201527527b7363c9031b0b63630b1363290313c9037bbb732b960511b6044820152606490fd5b91929015611878575081511561182a575090565b3b156118335790565b60405162461bcd60e51b815260206004820152601d60248201527f416464726573733a2063616c6c20746f206e6f6e2d636f6e74726163740000006044820152606490fd5b82519091501561188b5750805190602001fd5b60405162461bcd60e51b8152602060048201529081906118af90602483019061174d565b0390fdfea26469706673582212201e4671e89611eaebc0e37acef7b90a22243b93a44741d0eccbb345e183ee8a2364736f6c63430008110033","linkReferences":{}},"methodIdentifiers":{"acceptOwnership()":"79ba5097","canClaimRewards(address)":"a9b47a66","claimRewards(address)":"ef5cfb8c","getLootboxTokens()":"b13e796b","getRequestIdOf(address)":"2f282f60","onERC1155BatchReceived(address,address,uint256[],uint256[],bytes)":"bc197c81","onERC1155Received(address,address,uint256,uint256,bytes)":"f23a6e61","onERC721Received(address,address,uint256,bytes)":"150b7a02","owner()":"8da5cb5b","privateOpen(uint64,bytes32[])":"0f17d228","publicOpen(uint64)":"dcca63fc","rawFulfillRandomWords(uint256,uint256[])":"1fe543e3","s_vrfCoordinator()":"9eccacf6","setCoordinator(address)":"8ea98117","setPrivateOpen(bool)":"1dead060","setWhitelistRoot(bytes32)":"f5aa406d","supportsInterface(bytes4)":"01ffc9a7","transferOwnership(address)":"f2fde38b","withdraw()":"3ccfd60b"},"id":0}