{"abi":[{"type":"function","name":"test2Func1","inputs":[],"outputs":[],"stateMutability":"nonpayable"},{"type":"function","name":"test2Func10","inputs":[],"outputs":[],"stateMutability":"nonpayable"},{"type":"function","name":"test2Func11","inputs":[],"outputs":[],"stateMutability":"nonpayable"},{"type":"function","name":"test2Func12","inputs":[],"outputs":[],"stateMutability":"nonpayable"},{"type":"function","name":"test2Func13","inputs":[],"outputs":[],"stateMutability":"nonpayable"},{"type":"function","name":"test2Func14","inputs":[],"outputs":[],"stateMutability":"nonpayable"},{"type":"function","name":"test2Func15","inputs":[],"outputs":[],"stateMutability":"nonpayable"},{"type":"function","name":"test2Func16","inputs":[],"outputs":[],"stateMutability":"nonpayable"},{"type":"function","name":"test2Func17","inputs":[],"outputs":[],"stateMutability":"nonpayable"},{"type":"function","name":"test2Func18","inputs":[],"outputs":[],"stateMutability":"nonpayable"},{"type":"function","name":"test2Func19","inputs":[],"outputs":[],"stateMutability":"nonpayable"},{"type":"function","name":"test2Func2","inputs":[],"outputs":[],"stateMutability":"nonpayable"},{"type":"function","name":"test2Func20","inputs":[],"outputs":[],"stateMutability":"nonpayable"},{"type":"function","name":"test2Func3","inputs":[],"outputs":[],"stateMutability":"nonpayable"},{"type":"function","name":"test2Func4","inputs":[],"outputs":[],"stateMutability":"nonpayable"},{"type":"function","name":"test2Func5","inputs":[],"outputs":[],"stateMutability":"nonpayable"},{"type":"function","name":"test2Func6","inputs":[],"outputs":[],"stateMutability":"nonpayable"},{"type":"function","name":"test2Func7","inputs":[],"outputs":[],"stateMutability":"nonpayable"},{"type":"function","name":"test2Func8","inputs":[],"outputs":[],"stateMutability":"nonpayable"},{"type":"function","name":"test2Func9","inputs":[],"outputs":[],"stateMutability":"nonpayable"}],"bytecode":{"object":"0x6080604052348015600f57600080fd5b506101a98061001f6000396000f3fe608060405234801561001057600080fd5b506004361061016c5760003560e01c80638ee8be30116100cd578063d2f0c73e11610081578063e7de23a411610066578063e7de23a414610171578063ea36b55814610171578063ef3f4d781461017157600080fd5b8063d2f0c73e14610171578063e5f687b21461017157600080fd5b8063c670641d116100b2578063c670641d14610171578063ca5fa5c014610171578063caae8f231461017157600080fd5b80638ee8be301461017157806391d0396b1461017157600080fd5b80632e463958116101245780636dc16b01116101095780636dc16b0114610171578063792a8e2e14610171578063884280a61461017157600080fd5b80632e463958146101715780635fd6312b1461017157600080fd5b80630e4cd7fc116101555780630e4cd7fc14610171578063148843091461017157806317fd06e71461017157600080fd5b806303feeeae146101715780630c103a9314610171575b600080fd5b00fea2646970667358221220b4eb01e7203705f7290cef85bc9a80209ee30df75fe185826bbb736839465c0064736f6c63430008190033","linkReferences":{}},"methodIdentifiers":{"test2Func1()":"ea36b558","test2Func10()":"8ee8be30","test2Func11()":"884280a6","test2Func12()":"ca5fa5c0","test2Func13()":"6dc16b01","test2Func14()":"91d0396b","test2Func15()":"03feeeae","test2Func16()":"2e463958","test2Func17()":"14884309","test2Func18()":"0c103a93","test2Func19()":"5fd6312b","test2Func2()":"e7de23a4","test2Func20()":"792a8e2e","test2Func3()":"0e4cd7fc","test2Func4()":"c670641d","test2Func5()":"d2f0c73e","test2Func6()":"17fd06e7","test2Func7()":"ef3f4d78","test2Func8()":"e5f687b2","test2Func9()":"caae8f23"},"storageLayout":{"storage":[],"types":{}},"userdoc":{"version":1,"kind":"user"},"devdoc":{"version":1,"kind":"dev"},"id":5}