{"abi":[{"type":"function","name":"onERC1155BatchReceived","inputs":[{"name":"","type":"address","internalType":"address"},{"name":"","type":"address","internalType":"address"},{"name":"","type":"uint256[]","internalType":"uint256[]"},{"name":"","type":"uint256[]","internalType":"uint256[]"},{"name":"","type":"bytes","internalType":"bytes"}],"outputs":[{"name":"","type":"bytes4","internalType":"bytes4"}],"stateMutability":"nonpayable"},{"type":"function","name":"onERC1155Received","inputs":[{"name":"","type":"address","internalType":"address"},{"name":"","type":"address","internalType":"address"},{"name":"","type":"uint256","internalType":"uint256"},{"name":"","type":"uint256","internalType":"uint256"},{"name":"","type":"bytes","internalType":"bytes"}],"outputs":[{"name":"","type":"bytes4","internalType":"bytes4"}],"stateMutability":"nonpayable"},{"type":"function","name":"supportsInterface","inputs":[{"name":"interfaceId","type":"bytes4","internalType":"bytes4"}],"outputs":[{"name":"","type":"bool","internalType":"bool"}],"stateMutability":"view"}],"bytecode":{"object":"0x60808060405234610016576102d7908161001c8239f35b600080fdfe60808060405260048036101561001457600080fd5b600091823560e01c90816301ffc9a71461012b57508063bc197c81146100a05763f23a6e611461004357600080fd5b3461009c5760a036600319011261009c5761005c61017f565b5061006561019a565b5060843567ffffffffffffffff811161009857610085925036910161024e565b5060405163f23a6e6160e01b8152602090f35b8280fd5b5080fd5b503461009c5760a036600319011261009c576100ba61017f565b506100c361019a565b5067ffffffffffffffff604435818111610127576100e490369084016101ec565b50606435818111610127576100fc90369084016101ec565b5060843590811161009857610114925036910161024e565b5060405163bc197c8160e01b8152602090f35b8380fd5b91905034610098576020366003190112610098573563ffffffff60e01b81168091036100985760209250630271189760e51b811490811561016e575b5015158152f35b6301ffc9a760e01b14905038610167565b600435906001600160a01b038216820361019557565b600080fd5b602435906001600160a01b038216820361019557565b6040519190601f01601f1916820167ffffffffffffffff8111838210176101d657604052565b634e487b7160e01b600052604160045260246000fd5b81601f820112156101955780359167ffffffffffffffff83116101d6578260051b602092838061021d8185016101b0565b809781520192820101928311610195578301905b82821061023f575050505090565b81358152908301908301610231565b81601f820112156101955780359067ffffffffffffffff82116101d65761027e601f8301601f19166020016101b0565b92828452602083830101116101955781600092602080930183860137830101529056fea26469706673582212201bce373e4cdd5f922e4721e9b90538fcefb2e1eeed467df323a965eb174c0d9864736f6c63430008110033","linkReferences":{}},"methodIdentifiers":{"onERC1155BatchReceived(address,address,uint256[],uint256[],bytes)":"bc197c81","onERC1155Received(address,address,uint256,uint256,bytes)":"f23a6e61","supportsInterface(bytes4)":"01ffc9a7"},"id":48}