{"abi":[{"type":"constructor","inputs":[{"name":"_baseFee","type":"uint96","internalType":"uint96"},{"name":"_gasPriceLink","type":"uint96","internalType":"uint96"}],"stateMutability":"nonpayable"},{"type":"function","name":"BASE_FEE","inputs":[],"outputs":[{"name":"","type":"uint96","internalType":"uint96"}],"stateMutability":"view"},{"type":"function","name":"GAS_PRICE_LINK","inputs":[],"outputs":[{"name":"","type":"uint96","internalType":"uint96"}],"stateMutability":"view"},{"type":"function","name":"MAX_CONSUMERS","inputs":[],"outputs":[{"name":"","type":"uint16","internalType":"uint16"}],"stateMutability":"view"},{"type":"function","name":"acceptSubscriptionOwnerTransfer","inputs":[{"name":"_subId","type":"uint64","internalType":"uint64"}],"outputs":[],"stateMutability":"pure"},{"type":"function","name":"addConsumer","inputs":[{"name":"_subId","type":"uint64","internalType":"uint64"},{"name":"_consumer","type":"address","internalType":"address"}],"outputs":[],"stateMutability":"nonpayable"},{"type":"function","name":"cancelSubscription","inputs":[{"name":"_subId","type":"uint64","internalType":"uint64"},{"name":"_to","type":"address","internalType":"address"}],"outputs":[],"stateMutability":"nonpayable"},{"type":"function","name":"consumerIsAdded","inputs":[{"name":"_subId","type":"uint64","internalType":"uint64"},{"name":"_consumer","type":"address","internalType":"address"}],"outputs":[{"name":"","type":"bool","internalType":"bool"}],"stateMutability":"view"},{"type":"function","name":"createSubscription","inputs":[],"outputs":[{"name":"_subId","type":"uint64","internalType":"uint64"}],"stateMutability":"nonpayable"},{"type":"function","name":"fulfillRandomWords","inputs":[{"name":"_requestId","type":"uint256","internalType":"uint256"},{"name":"_consumer","type":"address","internalType":"address"}],"outputs":[],"stateMutability":"nonpayable"},{"type":"function","name":"fulfillRandomWordsWithOverride","inputs":[{"name":"_requestId","type":"uint256","internalType":"uint256"},{"name":"_consumer","type":"address","internalType":"address"},{"name":"_words","type":"uint256[]","internalType":"uint256[]"}],"outputs":[],"stateMutability":"nonpayable"},{"type":"function","name":"fundSubscription","inputs":[{"name":"_subId","type":"uint64","internalType":"uint64"},{"name":"_amount","type":"uint96","internalType":"uint96"}],"outputs":[],"stateMutability":"nonpayable"},{"type":"function","name":"getConfig","inputs":[],"outputs":[{"name":"minimumRequestConfirmations","type":"uint16","internalType":"uint16"},{"name":"maxGasLimit","type":"uint32","internalType":"uint32"},{"name":"stalenessSeconds","type":"uint32","internalType":"uint32"},{"name":"gasAfterPaymentCalculation","type":"uint32","internalType":"uint32"}],"stateMutability":"view"},{"type":"function","name":"getFallbackWeiPerUnitLink","inputs":[],"outputs":[{"name":"","type":"int256","internalType":"int256"}],"stateMutability":"view"},{"type":"function","name":"getFeeConfig","inputs":[],"outputs":[{"name":"fulfillmentFlatFeeLinkPPMTier1","type":"uint32","internalType":"uint32"},{"name":"fulfillmentFlatFeeLinkPPMTier2","type":"uint32","internalType":"uint32"},{"name":"fulfillmentFlatFeeLinkPPMTier3","type":"uint32","internalType":"uint32"},{"name":"fulfillmentFlatFeeLinkPPMTier4","type":"uint32","internalType":"uint32"},{"name":"fulfillmentFlatFeeLinkPPMTier5","type":"uint32","internalType":"uint32"},{"name":"reqsForTier2","type":"uint24","internalType":"uint24"},{"name":"reqsForTier3","type":"uint24","internalType":"uint24"},{"name":"reqsForTier4","type":"uint24","internalType":"uint24"},{"name":"reqsForTier5","type":"uint24","internalType":"uint24"}],"stateMutability":"view"},{"type":"function","name":"getRequestConfig","inputs":[],"outputs":[{"name":"","type":"uint16","internalType":"uint16"},{"name":"","type":"uint32","internalType":"uint32"},{"name":"","type":"bytes32[]","internalType":"bytes32[]"}],"stateMutability":"pure"},{"type":"function","name":"getSubscription","inputs":[{"name":"_subId","type":"uint64","internalType":"uint64"}],"outputs":[{"name":"balance","type":"uint96","internalType":"uint96"},{"name":"reqCount","type":"uint64","internalType":"uint64"},{"name":"owner","type":"address","internalType":"address"},{"name":"consumers","type":"address[]","internalType":"address[]"}],"stateMutability":"view"},{"type":"function","name":"pendingRequestExists","inputs":[{"name":"subId","type":"uint64","internalType":"uint64"}],"outputs":[{"name":"","type":"bool","internalType":"bool"}],"stateMutability":"view"},{"type":"function","name":"removeConsumer","inputs":[{"name":"_subId","type":"uint64","internalType":"uint64"},{"name":"_consumer","type":"address","internalType":"address"}],"outputs":[],"stateMutability":"nonpayable"},{"type":"function","name":"requestRandomWords","inputs":[{"name":"_keyHash","type":"bytes32","internalType":"bytes32"},{"name":"_subId","type":"uint64","internalType":"uint64"},{"name":"_minimumRequestConfirmations","type":"uint16","internalType":"uint16"},{"name":"_callbackGasLimit","type":"uint32","internalType":"uint32"},{"name":"_numWords","type":"uint32","internalType":"uint32"}],"outputs":[{"name":"","type":"uint256","internalType":"uint256"}],"stateMutability":"nonpayable"},{"type":"function","name":"requestSubscriptionOwnerTransfer","inputs":[{"name":"_subId","type":"uint64","internalType":"uint64"},{"name":"_newOwner","type":"address","internalType":"address"}],"outputs":[],"stateMutability":"pure"},{"type":"event","name":"AddedRandomWord","inputs":[{"name":"randomWord","type":"uint256","indexed":false,"internalType":"uint256"}],"anonymous":false},{"type":"event","name":"ConsumerAdded","inputs":[{"name":"subId","type":"uint64","indexed":true,"internalType":"uint64"},{"name":"consumer","type":"address","indexed":false,"internalType":"address"}],"anonymous":false},{"type":"event","name":"ConsumerRemoved","inputs":[{"name":"subId","type":"uint64","indexed":true,"internalType":"uint64"},{"name":"consumer","type":"address","indexed":false,"internalType":"address"}],"anonymous":false},{"type":"event","name":"RandomWordsFulfilled","inputs":[{"name":"requestId","type":"uint256","indexed":true,"internalType":"uint256"},{"name":"outputSeed","type":"uint256","indexed":false,"internalType":"uint256"},{"name":"payment","type":"uint96","indexed":false,"internalType":"uint96"},{"name":"success","type":"bool","indexed":false,"internalType":"bool"}],"anonymous":false},{"type":"event","name":"RandomWordsRequested","inputs":[{"name":"keyHash","type":"bytes32","indexed":true,"internalType":"bytes32"},{"name":"requestId","type":"uint256","indexed":false,"internalType":"uint256"},{"name":"preSeed","type":"uint256","indexed":false,"internalType":"uint256"},{"name":"subId","type":"uint64","indexed":true,"internalType":"uint64"},{"name":"minimumRequestConfirmations","type":"uint16","indexed":false,"internalType":"uint16"},{"name":"callbackGasLimit","type":"uint32","indexed":false,"internalType":"uint32"},{"name":"numWords","type":"uint32","indexed":false,"internalType":"uint32"},{"name":"sender","type":"address","indexed":true,"internalType":"address"}],"anonymous":false},{"type":"event","name":"SubscriptionCanceled","inputs":[{"name":"subId","type":"uint64","indexed":true,"internalType":"uint64"},{"name":"to","type":"address","indexed":false,"internalType":"address"},{"name":"amount","type":"uint256","indexed":false,"internalType":"uint256"}],"anonymous":false},{"type":"event","name":"SubscriptionCreated","inputs":[{"name":"subId","type":"uint64","indexed":true,"internalType":"uint64"},{"name":"owner","type":"address","indexed":false,"internalType":"address"}],"anonymous":false},{"type":"event","name":"SubscriptionFunded","inputs":[{"name":"subId","type":"uint64","indexed":true,"internalType":"uint64"},{"name":"oldBalance","type":"uint256","indexed":false,"internalType":"uint256"},{"name":"newBalance","type":"uint256","indexed":false,"internalType":"uint256"}],"anonymous":false},{"type":"error","name":"InsufficientBalance","inputs":[]},{"type":"error","name":"InvalidConsumer","inputs":[]},{"type":"error","name":"InvalidRandomWords","inputs":[]},{"type":"error","name":"InvalidSubscription","inputs":[]},{"type":"error","name":"MustBeSubOwner","inputs":[{"name":"owner","type":"address","internalType":"address"}]},{"type":"error","name":"TooManyConsumers","inputs":[]}],"bytecode":{"object":"0x60e0346100a657601f6113a938819003918201601f19168301916001600160401b038311848410176100ab5780849260409485528339810103126100a657610052602061004b836100c1565b92016100c1565b90606460c05260018055606460025560805260a0526040516112d390816100d68239608051818181610a590152610f96015260a0518181816104680152610f64015260c05181818161084b015261119b0152f35b600080fd5b634e487b7160e01b600052604160045260246000fd5b51906001600160601b03821682036100a65756fe608060408181526004918236101561001657600080fd5b600092833560e01c91826201229114610b5e5750816304c357cb14610b3b57816308e3898e14610a9f578163356dac7114610a7d5781633d18651e14610a395781635d3b1d30146108bf5781635fbbc0d21461086f57816364d51a2a146108305781637341c10c146107af578163808974ff1461077957816382359740146107535781639f87fad71461056f578163a21a23e41461048c578163a410347f14610448578163a47c769614610388578163afc69b531461029e578163c3f909d414610266578163d7ae1d301461019d578163e82ad7d41461013a575063ed5eb06d14610101575b600080fd5b3461013657806003193601126101365760209061012d61011f610bd1565b610127610be7565b90610d2a565b90519015158152f35b5080fd5b9190503461019957602036600319011261019957610195925061015b610bd1565b505191829162461bcd60e51b8352820160609060208152600f60208201526e1b9bdd081a5b5c1b195b595b9d1959608a1b60408201520190565b0390fd5b8280fd5b8383346101365780600319360112610136576101b7610bd1565b926001600160401b036101c8610be7565b941680845260036020528284205490916001600160a01b039182168015610257578033036102415750507fe8ed5b475a5b5987aa9165e8731bb78043f39eee32ec5a1169a89e27fcd49815838596849384885260036020528288205460a01c908351921682526020820152a28252600360205281205580f35b8451636c51fda960e11b81529182015260249150fd5b508351630fb532db60e11b8152fd5b9050823461029b578060031936011261029b5750610a8c8260809351928352622625a060208401528201526182056060820152f35b80fd5b8383346101365780600319360112610136576102b8610bd1565b906024356001600160601b03928382168203610384576001600160401b03168085526003602052828520549093906001600160a01b03161561037457907fd39ec07f4e209f627a4c427971473820dc129761ba28de8906bd56f57101d4f8929184865260036020526103658387205460a01c9261035f85892061033f83825460a01c611147565b81546001600160a01b031660a09190911b6001600160a01b031916179055565b83611147565b8351928352166020820152a280f35b8251630fb532db60e11b81528690fd5b8480fd5b905034610199576020928360031936011261029b576001600160401b036103ad610bd1565b1680825260038552838220546001600160a01b039591908616156104385782526003815283822054908585842054169381526103ea858420610c81565b93855195608087019360a01c875284838801528601526080606086015283518092528060a086019401925b8281106104225785850386f35b8351871685529381019392810192600101610415565b8451630fb532db60e11b81528490fd5b505034610136578160031936011261013657602090516001600160601b037f0000000000000000000000000000000000000000000000000000000000000000168152f35b82843461029b578060031936011261029b578054906001600160401b039182811683811461055c5760018491011680916001600160401b031916178255835190848201828110858211176105495785523382526020828101848152918452600381528584209251915160a01b6001600160a01b0319166001600160a01b0392909216919091179091559350541690817f464722b4166576d3dcbba877b999bc35cf911f4eaf434b7eba68fa113951d0bf848351338152a251908152f35b634e487b7160e01b845260418752602484fd5b634e487b7160e01b835260118652602483fd5b905034610199578160031936011261019957610589610bd1565b90610592610be7565b926001600160401b038316928386526003908160205260018060a01b039081848920541680156107435780330361072d5750866105ce91610d2a565b1561071e578487526020849052828720939581169390875b8254808210156106ec5786836105fc8487611162565b905490881b1c1614610617575061061290610cdb565b6105e6565b9192939495969790600019928381019081116106d9579061064d8561063f6106719489611162565b9054908a1b1c169187611162565b90919082549060031b9160018060a01b039283811b93849216901b16911916179055565b83549081156106c657509160209593917ff9bc9d5b5733d904409def43a5ecc888dbdac9a95687780d8fd489d3bb3813fc97959301926106b18484611162565b81939154921b1b19169055555b51908152a280f35b634e487b7160e01b8a5260319052602489fd5b634e487b7160e01b8b526011835260248bfd5b50505050507ff9bc9d5b5733d904409def43a5ecc888dbdac9a95687780d8fd489d3bb3813fc929350906020916106be565b5050516371e8313760e01b8152fd5b85602491865191636c51fda960e11b8352820152fd5b8451630fb532db60e11b81528690fd5b5050503461029b57602036600319011261029b5750610770610bd1565b506100fc611265565b9050346101995781600319360112610199576107ac91610797610be7565b9051916107a383610c2e565b84835235610d90565b80f35b839150346101365782600319360112610136576107ca610bd1565b6107d2610be7565b6001600160401b03821684526003602052848420549092906001600160a01b031680156108215780330361080b57846107ac858561117a565b8551636c51fda960e11b81529182015260249150fd5b508451630fb532db60e11b8152fd5b5050346101365781600319360112610136576020905161ffff7f0000000000000000000000000000000000000000000000000000000000000000168152f35b50503461013657816003193601126101365761012091815191620186a0809181855281602086015284015280606084015260808301528060a08301528060c08301528060e0830152610100820152f35b8383346101365760a036600319011261013657602435926001600160401b0380851690818603610384576044359561ffff8716809703610a355760643563ffffffff91828216809203610a3157608435928316809303610a3157610924903390610d2a565b15610a21578387526003602052858720546001600160a01b031615610a11576020976001549761095389610cdb565b6001556002549461096386610cdb565b60025588519161097283610bfd565b8783528b8301918583528a808501928884528d815260058f52209351166bffffffff0000000000000000845493518c1b169163ffffffff60601b905160601b16926fffffffffffffffffffffffffffffffff191617171790558651938885528985015286840152606083015260808201527f63373d1c4696214b898952999c9aaec57dac1ee2723cec59bea6888f489a977260a033943592a451908152f35b8551630fb532db60e11b81528590fd5b85516371e8313760e01b81528590fd5b8780fd5b8580fd5b505034610136578160031936011261013657602090516001600160601b037f0000000000000000000000000000000000000000000000000000000000000000168152f35b50503461013657816003193601126101365760209051660e35fa931a00008152f35b83833461013657606036600319011261013657610aba610be7565b604435936001600160401b038511610b375736602386011215610b37578481013594610af1610ae887610c6a565b94519485610c49565b85845260209560248786019160051b83010191368311610b3357602401905b828210610b2457866107ac87878735610d90565b81358152908701908701610b10565b8680fd5b8380fd5b5050346101365736600319011261029b5750610b55610bd1565b50610770610be7565b8390853461029b578060031936011261029b579190610b7c81610c2e565b82815281519283926060840190600385526060602091621e848083880152860152835180925280608086019401925b828110610bba57505050500390f35b835185528695509381019392810192600101610bab565b600435906001600160401b03821682036100fc57565b602435906001600160a01b03821682036100fc57565b606081019081106001600160401b03821117610c1857604052565b634e487b7160e01b600052604160045260246000fd5b602081019081106001600160401b03821117610c1857604052565b90601f801991011681019081106001600160401b03821117610c1857604052565b6001600160401b038111610c185760051b60200190565b9060405191828154918282526020928383019160005283600020936000905b828210610cb857505050610cb692500383610c49565b565b85546001600160a01b031684526001958601958895509381019390910190610ca0565b6000198114610cea5760010190565b634e487b7160e01b600052601160045260246000fd5b8051821015610d145760209160051b010190565b634e487b7160e01b600052603260045260246000fd5b6001600160401b03166000526004602052610d486040600020610c81565b9060005b8251811015610d88576001600160a01b0380610d688386610d00565b511690831614610d8057610d7b90610cdb565b610d4c565b505050600190565b505050600090565b925a91600091858352602093600585526001600160401b03906040948286822054161561110d578881526005875285812091865192610dce84610bfd565b549380851684528884019463ffffffff818180938c1c16885260601c169a8986019b808d52815180156000146110df57505050808b511697610e0f89610c6a565b98610e1c8b519a8b610c49565b808a52610e2b601f1991610c6a565b01368c8b0137889085838e5b5116811015610eaf57610ea88f917f7a08e065b63eea239e6a0839e8f38ad0e5ff66dbc8fd1a8f90fff2798237468a8f8f8f84610e9c918b9884518681019182528386820152858152610e8981610bfd565b519020610e968383610d00565b52610d00565b519051908152a1610cdb565b908e610e37565b509091929395979c9b508b9496985086915b8a51918c830191631fe543e360e01b83528d8d606486019060249a8b88015260448701528251809152816084870193019187905b8282106110ba5750505050908495848693039c610f1a601f199e8f8101885287610c49565b5116935193f1953d156110b4573d8281116110a157610f428a8a5193601f8401160183610c49565b815284893d92013e5b5a928381039080821161108e576001600160601b0394857f000000000000000000000000000000000000000000000000000000000000000016808402938404149114171561107b57837f00000000000000000000000000000000000000000000000000000000000000001690810180911161107b5783169481815116855260038952858886205460a01c1061106a5751168352600387528583209084825460a01c03928311611058575080546001600160a01b031660a09290921b6001600160a01b03191691909117905585815260058552838120558251858152938401521515908201527f7dffc5ae5ee4e2e4df1651cf6ad329a73cebdb728f37ea0187b9b17e036756e490606090a2565b634e487b7160e01b8452601160045283fd5b8751631e9acf1760e31b8152600490fd5b634e487b7160e01b855260116004528285fd5b634e487b7160e01b865260116004528386fd5b634e487b7160e01b865260416004528386fd5b50610f4b565b83959799969850600192948192945181520194019101918f928c979598969493610ef5565b909193959799929496989d9c50036110fc5785908b949392610ec1565b8851631f9efadb60e11b8152600490fd5b855162461bcd60e51b81526004810188905260136024820152721b9bdb995e1a5cdd195b9d081c995c5d595cdd606a1b6044820152606490fd5b9190916001600160601b0380809416911601918211610cea57565b8054821015610d145760005260206000200190600090565b906001600160401b038216916000908382526004602052604082205461ffff7f0000000000000000000000000000000000000000000000000000000000000000161461125357826111ca91610d2a565b61124e578281526004602052604081208054916801000000000000000083101561123a5750916112278161064d847f752ead9f4536ec1319ee3a5a604e1d65eded22e0924251552ba14ae4faa1bbc3966001602097018155611162565b6040516001600160a01b039091168152a2565b634e487b7160e01b81526041600452602490fd5b505050565b6040516305a48e0f60e01b8152600490fd5b5060405162461bcd60e51b815260206004820152600f60248201526e1b9bdd081a5b5c1b195b595b9d1959608a1b6044820152606490fdfea2646970667358221220a0d83d7cb73a120c6d4c8199be301e94aa02bb508d4fe542647743026aad637b64736f6c63430008110033","linkReferences":{}},"methodIdentifiers":{"BASE_FEE()":"3d18651e","GAS_PRICE_LINK()":"a410347f","MAX_CONSUMERS()":"64d51a2a","acceptSubscriptionOwnerTransfer(uint64)":"82359740","addConsumer(uint64,address)":"7341c10c","cancelSubscription(uint64,address)":"d7ae1d30","consumerIsAdded(uint64,address)":"ed5eb06d","createSubscription()":"a21a23e4","fulfillRandomWords(uint256,address)":"808974ff","fulfillRandomWordsWithOverride(uint256,address,uint256[])":"08e3898e","fundSubscription(uint64,uint96)":"afc69b53","getConfig()":"c3f909d4","getFallbackWeiPerUnitLink()":"356dac71","getFeeConfig()":"5fbbc0d2","getRequestConfig()":"00012291","getSubscription(uint64)":"a47c7696","pendingRequestExists(uint64)":"e82ad7d4","removeConsumer(uint64,address)":"9f87fad7","requestRandomWords(bytes32,uint64,uint16,uint32,uint32)":"5d3b1d30","requestSubscriptionOwnerTransfer(uint64,address)":"04c357cb"},"id":7}