{"abi":[{"type":"function","name":"supportsInterface","inputs":[{"name":"_interfaceID","type":"bytes4","internalType":"bytes4"}],"outputs":[{"name":"","type":"bool","internalType":"bool"}],"stateMutability":"view"},{"type":"function","name":"test1Func1","inputs":[],"outputs":[],"stateMutability":"nonpayable"},{"type":"function","name":"test1Func10","inputs":[],"outputs":[],"stateMutability":"nonpayable"},{"type":"function","name":"test1Func11","inputs":[],"outputs":[],"stateMutability":"nonpayable"},{"type":"function","name":"test1Func12","inputs":[],"outputs":[],"stateMutability":"nonpayable"},{"type":"function","name":"test1Func13","inputs":[],"outputs":[],"stateMutability":"nonpayable"},{"type":"function","name":"test1Func14","inputs":[],"outputs":[],"stateMutability":"nonpayable"},{"type":"function","name":"test1Func15","inputs":[],"outputs":[],"stateMutability":"nonpayable"},{"type":"function","name":"test1Func16","inputs":[],"outputs":[],"stateMutability":"nonpayable"},{"type":"function","name":"test1Func17","inputs":[],"outputs":[],"stateMutability":"nonpayable"},{"type":"function","name":"test1Func18","inputs":[],"outputs":[],"stateMutability":"nonpayable"},{"type":"function","name":"test1Func19","inputs":[],"outputs":[],"stateMutability":"nonpayable"},{"type":"function","name":"test1Func2","inputs":[],"outputs":[],"stateMutability":"nonpayable"},{"type":"function","name":"test1Func20","inputs":[],"outputs":[],"stateMutability":"nonpayable"},{"type":"function","name":"test1Func3","inputs":[],"outputs":[],"stateMutability":"nonpayable"},{"type":"function","name":"test1Func4","inputs":[],"outputs":[],"stateMutability":"nonpayable"},{"type":"function","name":"test1Func5","inputs":[],"outputs":[],"stateMutability":"nonpayable"},{"type":"function","name":"test1Func6","inputs":[],"outputs":[],"stateMutability":"nonpayable"},{"type":"function","name":"test1Func7","inputs":[],"outputs":[],"stateMutability":"nonpayable"},{"type":"function","name":"test1Func8","inputs":[],"outputs":[],"stateMutability":"nonpayable"},{"type":"function","name":"test1Func9","inputs":[],"outputs":[],"stateMutability":"nonpayable"},{"type":"event","name":"TestEvent","inputs":[{"name":"something","type":"address","indexed":false,"internalType":"address"}],"anonymous":false}],"bytecode":{"object":"0x6080604052348015600f57600080fd5b506102258061001f6000396000f3fe608060405234801561001057600080fd5b50600436106101775760003560e01c806351b68a4d116100d85780639abf97aa1161008c578063cd0bae0911610066578063cd0bae09146101a4578063cf3bbe18146101a4578063db32da15146101a457600080fd5b80639abf97aa146101a4578063b0e8fcc7146101a4578063cbb835f6146101a457600080fd5b806377e9d0d6116100bd57806377e9d0d6146101a457806381b5207d146101a457806387952d22146101a457600080fd5b806351b68a4d146101a457806371a99d6f146101a457600080fd5b806324c1d5a71161012f5780632cb83248116101145780632cb83248146101a45780634484b3b9146101a457806350eb3f43146101a457600080fd5b806324c1d5a7146101a4578063292c460d146101a457600080fd5b8063110460471161016057806311046047146101a457806319c841ab146101a457806319e3b533146101a457600080fd5b806301ffc9a71461017c5780630716c2ae146101a4575b600080fd5b61019061018a3660046101a6565b50600090565b604051901515815260200160405180910390f35b005b6000602082840312156101b857600080fd5b81357fffffffff00000000000000000000000000000000000000000000000000000000811681146101e857600080fd5b939250505056fea264697066735822122015743748565d69af33241508b41ee2fba0351719aefd24c478808e3fc8b31aac64736f6c63430008190033","linkReferences":{}},"methodIdentifiers":{"supportsInterface(bytes4)":"01ffc9a7","test1Func1()":"19e3b533","test1Func10()":"87952d22","test1Func11()":"50eb3f43","test1Func12()":"81b5207d","test1Func13()":"19c841ab","test1Func14()":"51b68a4d","test1Func15()":"2cb83248","test1Func16()":"77e9d0d6","test1Func17()":"4484b3b9","test1Func18()":"9abf97aa","test1Func19()":"292c460d","test1Func2()":"0716c2ae","test1Func20()":"b0e8fcc7","test1Func3()":"11046047","test1Func4()":"cf3bbe18","test1Func5()":"24c1d5a7","test1Func6()":"cbb835f6","test1Func7()":"71a99d6f","test1Func8()":"db32da15","test1Func9()":"cd0bae09"},"storageLayout":{"storage":[],"types":{}},"userdoc":{"version":1,"kind":"user"},"devdoc":{"version":1,"kind":"dev"},"id":4}